{"contracts/CollegeBlockchain.sol":{"CollegeBlockchain":{"abi":[{"inputs":[{"internalType":"string","name":"deptName","type":"string"},{"internalType":"string","name":"data","type":"string"}],"name":"addBlock","outputs":[],"stateMutability":"nonpayable","type":"function"},{"inputs":[{"internalType":"string","name":"deptName","type":"string"},{"internalType":"string","name":"data","type":"string"}],"name":"createGenesisBlock","outputs":[],"stateMutability":"nonpayable","type":"function"},{"inputs":[{"internalType":"uint256","name":"","type":"uint256"}],"name":"departmentList","outputs":[{"internalType":"string","name":"","type":"string"}],"stateMutability":"view","type":"function"},{"inputs":[{"internalType":"string","name":"","type":"string"}],"name":"departments","outputs":[{"internalType":"string","name":"name","type":"string"}],"stateMutability":"view","type":"function"},{"inputs":[{"internalType":"string","name":"deptName","type":"string"}],"name":"getDepartmentBlocks","outputs":[{"components":[{"internalType":"uint256","name":"index","type":"uint256"},{"internalType":"bytes32","name":"previousHash","type":"bytes32"},{"internalType":"uint256","name":"timestamp","type":"uint256"},{"internalType":"string","name":"data","type":"string"},{"internalType":"bytes32","name":"hash","type":"bytes32"}],"internalType":"struct CollegeBlockchain.Block[]","name":"","type":"tuple[]"}],"stateMutability":"view","type":"function"}],"evm":{"bytecode":{"linkReferences":{},"object":"608060405234801561001057600080fd5b506112a7806100206000396000f3fe608060405234801561001057600080fd5b50600436106100575760003560e01c80633d2a7d941461005c578063449e491f146100785780635ef950b3146100a85780639ecf3a41146100c4578063fa3e4936146100f4575b600080fd5b6100766004803603810190610071919061096e565b610124565b005b610092600480360381019061008d91906109e6565b6102d5565b60405161009f9190610c18565b60405180910390f35b6100c260048036038101906100bd919061096e565b61040f565b005b6100de60048036038101906100d99190610c66565b6106ac565b6040516100eb9190610cdd565b60405180910390f35b61010e600480360381019061010991906109e6565b610758565b60405161011b9190610cdd565b60405180910390f35b600080836040516101359190610d3b565b9081526020016040518091039020600101805490501461018a576040517f08c379a000000000000000000000000000000000000000000000000000000000815260040161018190610d9e565b60405180910390fd5b60006040518060a00160405280600081526020016000801b815260200142815260200183815260200183426040516020016101c6929190610ddf565b604051602081830303815290604052805190602001208152509050826000846040516101f29190610d3b565b9081526020016040518091039020600001908161020f9190611013565b506000836040516102209190610d3b565b9081526020016040518091039020600101819080600181540180825580915050600190039060005260206000209060050201600090919091909150600082015181600001556020820151816001015560408201518160020155606082015181600301908161028e9190611013565b506080820151816004015550506001839080600181540180825580915050600190039060005260206000200160009091909190915090816102cf9190611013565b50505050565b60606000826040516102e79190610d3b565b9081526020016040518091039020600101805480602002602001604051908101604052809291908181526020016000905b8282101561040457838290600052602060002090600502016040518060a001604052908160008201548152602001600182015481526020016002820154815260200160038201805461036990610e36565b80601f016020809104026020016040519081016040528092919081815260200182805461039590610e36565b80156103e25780601f106103b7576101008083540402835291602001916103e2565b820191906000526020600020905b8154815290600101906020018083116103c557829003601f168201915b5050505050815260200160048201548152505081526020019060010190610318565b505050509050919050565b600080836040516104209190610d3b565b90815260200160405180910390206001018054905011610475576040517f08c379a000000000000000000000000000000000000000000000000000000000815260040161046c90611131565b60405180910390fd5b600080836040516104869190610d3b565b908152602001604051809103902060010160016000856040516104a99190610d3b565b9081526020016040518091039020600101805490506104c89190611180565b815481106104d9576104d86111b4565b5b90600052602060002090600502016040518060a001604052908160008201548152602001600182015481526020016002820154815260200160038201805461052090610e36565b80601f016020809104026020016040519081016040528092919081815260200182805461054c90610e36565b80156105995780601f1061056e57610100808354040283529160200191610599565b820191906000526020600020905b81548152906001019060200180831161057c57829003601f168201915b50505050508152602001600482015481525050905060006040518060a00160405280600184600001516105cc91906111e3565b8152602001836080015181526020014281526020018481526020018442856080015160405160200161060093929190611238565b60405160208183030381529060405280519060200120815250905060008460405161062b9190610d3b565b908152602001604051809103902060010181908060018154018082558091505060019003906000526020600020906005020160009091909190915060008201518160000155602082015181600101556040820151816002015560608201518160030190816106999190611013565b5060808201518160040155505050505050565b600181815481106106bc57600080fd5b9060005260206000200160009150905080546106d790610e36565b80601f016020809104026020016040519081016040528092919081815260200182805461070390610e36565b80156107505780601f1061072557610100808354040283529160200191610750565b820191906000526020600020905b81548152906001019060200180831161073357829003601f168201915b505050505081565b60008180516020810182018051848252602083016020850120818352809550505050505060009150905080600001805461079190610e36565b80601f01602080910402602001604051908101604052809291908181526020018280546107bd90610e36565b801561080a5780601f106107df5761010080835404028352916020019161080a565b820191906000526020600020905b8154815290600101906020018083116107ed57829003601f168201915b5050505050905081565b6000604051905090565b600080fd5b600080fd5b600080fd5b600080fd5b6000601f19601f8301169050919050565b7f4e487b7100000000000000000000000000000000000000000000000000000000600052604160045260246000fd5b61087b82610832565b810181811067ffffffffffffffff8211171561089a57610899610843565b5b80604052505050565b60006108ad610814565b90506108b98282610872565b919050565b600067ffffffffffffffff8211156108d9576108d8610843565b5b6108e282610832565b9050602081019050919050565b82818337600083830152505050565b600061091161090c846108be565b6108a3565b90508281526020810184848401111561092d5761092c61082d565b5b6109388482856108ef565b509392505050565b600082601f83011261095557610954610828565b5b81356109658482602086016108fe565b91505092915050565b600080604083850312156109855761098461081e565b5b600083013567ffffffffffffffff8111156109a3576109a2610823565b5b6109af85828601610940565b925050602083013567ffffffffffffffff8111156109d0576109cf610823565b5b6109dc85828601610940565b9150509250929050565b6000602082840312156109fc576109fb61081e565b5b600082013567ffffffffffffffff811115610a1a57610a19610823565b5b610a2684828501610940565b91505092915050565b600081519050919050565b600082825260208201905092915050565b6000819050602082019050919050565b6000819050919050565b610a6e81610a5b565b82525050565b6000819050919050565b610a8781610a74565b82525050565b600081519050919050565b600082825260208201905092915050565b60005b83811015610ac7578082015181840152602081019050610aac565b60008484015250505050565b6000610ade82610a8d565b610ae88185610a98565b9350610af8818560208601610aa9565b610b0181610832565b840191505092915050565b600060a083016000830151610b246000860182610a65565b506020830151610b376020860182610a7e565b506040830151610b4a6040860182610a65565b5060608301518482036060860152610b628282610ad3565b9150506080830151610b776080860182610a7e565b508091505092915050565b6000610b8e8383610b0c565b905092915050565b6000602082019050919050565b6000610bae82610a2f565b610bb88185610a3a565b935083602082028501610bca85610a4b565b8060005b85811015610c065784840389528151610be78582610b82565b9450610bf283610b96565b925060208a01995050600181019050610bce565b50829750879550505050505092915050565b60006020820190508181036000830152610c328184610ba3565b905092915050565b610c4381610a5b565b8114610c4e57600080fd5b50565b600081359050610c6081610c3a565b92915050565b600060208284031215610c7c57610c7b61081e565b5b6000610c8a84828501610c51565b91505092915050565b600082825260208201905092915050565b6000610caf82610a8d565b610cb98185610c93565b9350610cc9818560208601610aa9565b610cd281610832565b840191505092915050565b60006020820190508181036000830152610cf78184610ca4565b905092915050565b600081905092915050565b6000610d1582610a8d565b610d1f8185610cff565b9350610d2f818560208601610aa9565b80840191505092915050565b6000610d478284610d0a565b915081905092915050565b7f47656e6573697320626c6f636b20616c72656164792065786973747300000000600082015250565b6000610d88601c83610c93565b9150610d9382610d52565b602082019050919050565b60006020820190508181036000830152610db781610d7b565b9050919050565b6000819050919050565b610dd9610dd482610a5b565b610dbe565b82525050565b6000610deb8285610d0a565b9150610df78284610dc8565b6020820191508190509392505050565b7f4e487b7100000000000000000000000000000000000000000000000000000000600052602260045260246000fd5b60006002820490506001821680610e4e57607f821691505b602082108103610e6157610e60610e07565b5b50919050565b60008190508160005260206000209050919050565b60006020601f8301049050919050565b600082821b905092915050565b600060088302610ec97fffffffffffffffffffffffffffffffffffffffffffffffffffffffffffffffff82610e8c565b610ed38683610e8c565b95508019841693508086168417925050509392505050565b6000819050919050565b6000610f10610f0b610f0684610a5b565b610eeb565b610a5b565b9050919050565b6000819050919050565b610f2a83610ef5565b610f3e610f3682610f17565b848454610e99565b825550505050565b600090565b610f53610f46565b610f5e818484610f21565b505050565b5b81811015610f8257610f77600082610f4b565b600181019050610f64565b5050565b601f821115610fc757610f9881610e67565b610fa184610e7c565b81016020851015610fb0578190505b610fc4610fbc85610e7c565b830182610f63565b50505b505050565b600082821c905092915050565b6000610fea60001984600802610fcc565b1980831691505092915050565b60006110038383610fd9565b9150826002028217905092915050565b61101c82610a8d565b67ffffffffffffffff81111561103557611034610843565b5b61103f8254610e36565b61104a828285610f86565b600060209050601f83116001811461107d576000841561106b578287015190505b6110758582610ff7565b8655506110dd565b601f19841661108b86610e67565b60005b828110156110b35784890151825560018201915060208501945060208101905061108e565b868310156110d057848901516110cc601f891682610fd9565b8355505b6001600288020188555050505b505050505050565b7f47656e6573697320626c6f636b20646f6573206e6f7420657869737400000000600082015250565b600061111b601c83610c93565b9150611126826110e5565b602082019050919050565b6000602082019050818103600083015261114a8161110e565b9050919050565b7f4e487b7100000000000000000000000000000000000000000000000000000000600052601160045260246000fd5b600061118b82610a5b565b915061119683610a5b565b92508282039050818111156111ae576111ad611151565b5b92915050565b7f4e487b7100000000000000000000000000000000000000000000000000000000600052603260045260246000fd5b60006111ee82610a5b565b91506111f983610a5b565b925082820190508082111561121157611210611151565b5b92915050565b6000819050919050565b61123261122d82610a74565b611217565b82525050565b60006112448286610d0a565b91506112508285610dc8565b6020820191506112608284611221565b60208201915081905094935050505056fea2646970667358221220cbbe72161ce90851cfbad511ff48377b53fb533860f9b6f768ea713cf84ee84464736f6c63430008180033","opcodes":"PUSH1 0x80 PUSH1 0x40 MSTORE CALLVALUE DUP1 ISZERO PUSH2 0x10 JUMPI PUSH1 0x0 DUP1 REVERT JUMPDEST POP PUSH2 0x12A7 DUP1 PUSH2 0x20 PUSH1 0x0 CODECOPY PUSH1 0x0 RETURN INVALID PUSH1 0x80 PUSH1 0x40 MSTORE CALLVALUE DUP1 ISZERO PUSH2 0x10 JUMPI PUSH1 0x0 DUP1 REVERT JUMPDEST POP PUSH1 0x4 CALLDATASIZE LT PUSH2 0x57 JUMPI PUSH1 0x0 CALLDATALOAD PUSH1 0xE0 SHR DUP1 PUSH4 0x3D2A7D94 EQ PUSH2 0x5C JUMPI DUP1 PUSH4 0x449E491F EQ PUSH2 0x78 JUMPI DUP1 PUSH4 0x5EF950B3 EQ PUSH2 0xA8 JUMPI DUP1 PUSH4 0x9ECF3A41 EQ PUSH2 0xC4 JUMPI DUP1 PUSH4 0xFA3E4936 EQ PUSH2 0xF4 JUMPI JUMPDEST PUSH1 0x0 DUP1 REVERT JUMPDEST PUSH2 0x76 PUSH1 0x4 DUP1 CALLDATASIZE SUB DUP2 ADD SWAP1 PUSH2 0x71 SWAP2 SWAP1 PUSH2 0x96E JUMP JUMPDEST PUSH2 0x124 JUMP JUMPDEST STOP JUMPDEST PUSH2 0x92 PUSH1 0x4 DUP1 CALLDATASIZE SUB DUP2 ADD SWAP1 PUSH2 0x8D SWAP2 SWAP1 PUSH2 0x9E6 JUMP JUMPDEST PUSH2 0x2D5 JUMP JUMPDEST PUSH1 0x40 MLOAD PUSH2 0x9F SWAP2 SWAP1 PUSH2 0xC18 JUMP JUMPDEST PUSH1 0x40 MLOAD DUP1 SWAP2 SUB SWAP1 RETURN JUMPDEST PUSH2 0xC2 PUSH1 0x4 DUP1 CALLDATASIZE SUB DUP2 ADD SWAP1 PUSH2 0xBD SWAP2 SWAP1 PUSH2 0x96E JUMP JUMPDEST PUSH2 0x40F JUMP JUMPDEST STOP JUMPDEST PUSH2 0xDE PUSH1 0x4 DUP1 CALLDATASIZE SUB DUP2 ADD SWAP1 PUSH2 0xD9 SWAP2 SWAP1 PUSH2 0xC66 JUMP JUMPDEST PUSH2 0x6AC JUMP JUMPDEST PUSH1 0x40 MLOAD PUSH2 0xEB SWAP2 SWAP1 PUSH2 0xCDD JUMP JUMPDEST PUSH1 0x40 MLOAD DUP1 SWAP2 SUB SWAP1 RETURN JUMPDEST PUSH2 0x10E PUSH1 0x4 DUP1 CALLDATASIZE SUB DUP2 ADD SWAP1 PUSH2 0x109 SWAP2 SWAP1 PUSH2 0x9E6 JUMP JUMPDEST PUSH2 0x758 JUMP JUMPDEST PUSH1 0x40 MLOAD PUSH2 0x11B SWAP2 SWAP1 PUSH2 0xCDD JUMP JUMPDEST PUSH1 0x40 MLOAD DUP1 SWAP2 SUB SWAP1 RETURN JUMPDEST PUSH1 0x0 DUP1 DUP4 PUSH1 0x40 MLOAD PUSH2 0x135 SWAP2 SWAP1 PUSH2 0xD3B JUMP JUMPDEST SWAP1 DUP2 MSTORE PUSH1 0x20 ADD PUSH1 0x40 MLOAD DUP1 SWAP2 SUB SWAP1 KECCAK256 PUSH1 0x1 ADD DUP1 SLOAD SWAP1 POP EQ PUSH2 0x18A JUMPI PUSH1 0x40 MLOAD PUSH32 0x8C379A000000000000000000000000000000000000000000000000000000000 DUP2 MSTORE PUSH1 0x4 ADD PUSH2 0x181 SWAP1 PUSH2 0xD9E JUMP JUMPDEST PUSH1 0x40 MLOAD DUP1 SWAP2 SUB SWAP1 REVERT JUMPDEST PUSH1 0x0 PUSH1 0x40 MLOAD DUP1 PUSH1 0xA0 ADD PUSH1 0x40 MSTORE DUP1 PUSH1 0x0 DUP2 MSTORE PUSH1 0x20 ADD PUSH1 0x0 DUP1 SHL DUP2 MSTORE PUSH1 0x20 ADD TIMESTAMP DUP2 MSTORE PUSH1 0x20 ADD DUP4 DUP2 MSTORE PUSH1 0x20 ADD DUP4 TIMESTAMP PUSH1 0x40 MLOAD PUSH1 0x20 ADD PUSH2 0x1C6 SWAP3 SWAP2 SWAP1 PUSH2 0xDDF JUMP JUMPDEST PUSH1 0x40 MLOAD PUSH1 0x20 DUP2 DUP4 SUB SUB DUP2 MSTORE SWAP1 PUSH1 0x40 MSTORE DUP1 MLOAD SWAP1 PUSH1 0x20 ADD KECCAK256 DUP2 MSTORE POP SWAP1 POP DUP3 PUSH1 0x0 DUP5 PUSH1 0x40 MLOAD PUSH2 0x1F2 SWAP2 SWAP1 PUSH2 0xD3B JUMP JUMPDEST SWAP1 DUP2 MSTORE PUSH1 0x20 ADD PUSH1 0x40 MLOAD DUP1 SWAP2 SUB SWAP1 KECCAK256 PUSH1 0x0 ADD SWAP1 DUP2 PUSH2 0x20F SWAP2 SWAP1 PUSH2 0x1013 JUMP JUMPDEST POP PUSH1 0x0 DUP4 PUSH1 0x40 MLOAD PUSH2 0x220 SWAP2 SWAP1 PUSH2 0xD3B JUMP JUMPDEST SWAP1 DUP2 MSTORE PUSH1 0x20 ADD PUSH1 0x40 MLOAD DUP1 SWAP2 SUB SWAP1 KECCAK256 PUSH1 0x1 ADD DUP2 SWAP1 DUP1 PUSH1 0x1 DUP2 SLOAD ADD DUP1 DUP3 SSTORE DUP1 SWAP2 POP POP PUSH1 0x1 SWAP1 SUB SWAP1 PUSH1 0x0 MSTORE PUSH1 0x20 PUSH1 0x0 KECCAK256 SWAP1 PUSH1 0x5 MUL ADD PUSH1 0x0 SWAP1 SWAP2 SWAP1 SWAP2 SWAP1 SWAP2 POP PUSH1 0x0 DUP3 ADD MLOAD DUP2 PUSH1 0x0 ADD SSTORE PUSH1 0x20 DUP3 ADD MLOAD DUP2 PUSH1 0x1 ADD SSTORE PUSH1 0x40 DUP3 ADD MLOAD DUP2 PUSH1 0x2 ADD SSTORE PUSH1 0x60 DUP3 ADD MLOAD DUP2 PUSH1 0x3 ADD SWAP1 DUP2 PUSH2 0x28E SWAP2 SWAP1 PUSH2 0x1013 JUMP JUMPDEST POP PUSH1 0x80 DUP3 ADD MLOAD DUP2 PUSH1 0x4 ADD SSTORE POP POP PUSH1 0x1 DUP4 SWAP1 DUP1 PUSH1 0x1 DUP2 SLOAD ADD DUP1 DUP3 SSTORE DUP1 SWAP2 POP POP PUSH1 0x1 SWAP1 SUB SWAP1 PUSH1 0x0 MSTORE PUSH1 0x20 PUSH1 0x0 KECCAK256 ADD PUSH1 0x0 SWAP1 SWAP2 SWAP1 SWAP2 SWAP1 SWAP2 POP SWAP1 DUP2 PUSH2 0x2CF SWAP2 SWAP1 PUSH2 0x1013 JUMP JUMPDEST POP POP POP POP JUMP JUMPDEST PUSH1 0x60 PUSH1 0x0 DUP3 PUSH1 0x40 MLOAD PUSH2 0x2E7 SWAP2 SWAP1 PUSH2 0xD3B JUMP JUMPDEST SWAP1 DUP2 MSTORE PUSH1 0x20 ADD PUSH1 0x40 MLOAD DUP1 SWAP2 SUB SWAP1 KECCAK256 PUSH1 0x1 ADD DUP1 SLOAD DUP1 PUSH1 0x20 MUL PUSH1 0x20 ADD PUSH1 0x40 MLOAD SWAP1 DUP2 ADD PUSH1 0x40 MSTORE DUP1 SWAP3 SWAP2 SWAP1 DUP2 DUP2 MSTORE PUSH1 0x20 ADD PUSH1 0x0 SWAP1 JUMPDEST DUP3 DUP3 LT ISZERO PUSH2 0x404 JUMPI DUP4 DUP3 SWAP1 PUSH1 0x0 MSTORE PUSH1 0x20 PUSH1 0x0 KECCAK256 SWAP1 PUSH1 0x5 MUL ADD PUSH1 0x40 MLOAD DUP1 PUSH1 0xA0 ADD PUSH1 0x40 MSTORE SWAP1 DUP2 PUSH1 0x0 DUP3 ADD SLOAD DUP2 MSTORE PUSH1 0x20 ADD PUSH1 0x1 DUP3 ADD SLOAD DUP2 MSTORE PUSH1 0x20 ADD PUSH1 0x2 DUP3 ADD SLOAD DUP2 MSTORE PUSH1 0x20 ADD PUSH1 0x3 DUP3 ADD DUP1 SLOAD PUSH2 0x369 SWAP1 PUSH2 0xE36 JUMP JUMPDEST DUP1 PUSH1 0x1F ADD PUSH1 0x20 DUP1 SWAP2 DIV MUL PUSH1 0x20 ADD PUSH1 0x40 MLOAD SWAP1 DUP2 ADD PUSH1 0x40 MSTORE DUP1 SWAP3 SWAP2 SWAP1 DUP2 DUP2 MSTORE PUSH1 0x20 ADD DUP3 DUP1 SLOAD PUSH2 0x395 SWAP1 PUSH2 0xE36 JUMP JUMPDEST DUP1 ISZERO PUSH2 0x3E2 JUMPI DUP1 PUSH1 0x1F LT PUSH2 0x3B7 JUMPI PUSH2 0x100 DUP1 DUP4 SLOAD DIV MUL DUP4 MSTORE SWAP2 PUSH1 0x20 ADD SWAP2 PUSH2 0x3E2 JUMP JUMPDEST DUP3 ADD SWAP2 SWAP1 PUSH1 0x0 MSTORE PUSH1 0x20 PUSH1 0x0 KECCAK256 SWAP1 JUMPDEST DUP2 SLOAD DUP2 MSTORE SWAP1 PUSH1 0x1 ADD SWAP1 PUSH1 0x20 ADD DUP1 DUP4 GT PUSH2 0x3C5 JUMPI DUP3 SWAP1 SUB PUSH1 0x1F AND DUP3 ADD SWAP2 JUMPDEST POP POP POP POP POP DUP2 MSTORE PUSH1 0x20 ADD PUSH1 0x4 DUP3 ADD SLOAD DUP2 MSTORE POP POP DUP2 MSTORE PUSH1 0x20 ADD SWAP1 PUSH1 0x1 ADD SWAP1 PUSH2 0x318 JUMP JUMPDEST POP POP POP POP SWAP1 POP SWAP2 SWAP1 POP JUMP JUMPDEST PUSH1 0x0 DUP1 DUP4 PUSH1 0x40 MLOAD PUSH2 0x420 SWAP2 SWAP1 PUSH2 0xD3B JUMP JUMPDEST SWAP1 DUP2 MSTORE PUSH1 0x20 ADD PUSH1 0x40 MLOAD DUP1 SWAP2 SUB SWAP1 KECCAK256 PUSH1 0x1 ADD DUP1 SLOAD SWAP1 POP GT PUSH2 0x475 JUMPI PUSH1 0x40 MLOAD PUSH32 0x8C379A000000000000000000000000000000000000000000000000000000000 DUP2 MSTORE PUSH1 0x4 ADD PUSH2 0x46C SWAP1 PUSH2 0x1131 JUMP JUMPDEST PUSH1 0x40 MLOAD DUP1 SWAP2 SUB SWAP1 REVERT JUMPDEST PUSH1 0x0 DUP1 DUP4 PUSH1 0x40 MLOAD PUSH2 0x486 SWAP2 SWAP1 PUSH2 0xD3B JUMP JUMPDEST SWAP1 DUP2 MSTORE PUSH1 0x20 ADD PUSH1 0x40 MLOAD DUP1 SWAP2 SUB SWAP1 KECCAK256 PUSH1 0x1 ADD PUSH1 0x1 PUSH1 0x0 DUP6 PUSH1 0x40 MLOAD PUSH2 0x4A9 SWAP2 SWAP1 PUSH2 0xD3B JUMP JUMPDEST SWAP1 DUP2 MSTORE PUSH1 0x20 ADD PUSH1 0x40 MLOAD DUP1 SWAP2 SUB SWAP1 KECCAK256 PUSH1 0x1 ADD DUP1 SLOAD SWAP1 POP PUSH2 0x4C8 SWAP2 SWAP1 PUSH2 0x1180 JUMP JUMPDEST DUP2 SLOAD DUP2 LT PUSH2 0x4D9 JUMPI PUSH2 0x4D8 PUSH2 0x11B4 JUMP JUMPDEST JUMPDEST SWAP1 PUSH1 0x0 MSTORE PUSH1 0x20 PUSH1 0x0 KECCAK256 SWAP1 PUSH1 0x5 MUL ADD PUSH1 0x40 MLOAD DUP1 PUSH1 0xA0 ADD PUSH1 0x40 MSTORE SWAP1 DUP2 PUSH1 0x0 DUP3 ADD SLOAD DUP2 MSTORE PUSH1 0x20 ADD PUSH1 0x1 DUP3 ADD SLOAD DUP2 MSTORE PUSH1 0x20 ADD PUSH1 0x2 DUP3 ADD SLOAD DUP2 MSTORE PUSH1 0x20 ADD PUSH1 0x3 DUP3 ADD DUP1 SLOAD PUSH2 0x520 SWAP1 PUSH2 0xE36 JUMP JUMPDEST DUP1 PUSH1 0x1F ADD PUSH1 0x20 DUP1 SWAP2 DIV MUL PUSH1 0x20 ADD PUSH1 0x40 MLOAD SWAP1 DUP2 ADD PUSH1 0x40 MSTORE DUP1 SWAP3 SWAP2 SWAP1 DUP2 DUP2 MSTORE PUSH1 0x20 ADD DUP3 DUP1 SLOAD PUSH2 0x54C SWAP1 PUSH2 0xE36 JUMP JUMPDEST DUP1 ISZERO PUSH2 0x599 JUMPI DUP1 PUSH1 0x1F LT PUSH2 0x56E JUMPI PUSH2 0x100 DUP1 DUP4 SLOAD DIV MUL DUP4 MSTORE SWAP2 PUSH1 0x20 ADD SWAP2 PUSH2 0x599 JUMP JUMPDEST DUP3 ADD SWAP2 SWAP1 PUSH1 0x0 MSTORE PUSH1 0x20 PUSH1 0x0 KECCAK256 SWAP1 JUMPDEST DUP2 SLOAD DUP2 MSTORE SWAP1 PUSH1 0x1 ADD SWAP1 PUSH1 0x20 ADD DUP1 DUP4 GT PUSH2 0x57C JUMPI DUP3 SWAP1 SUB PUSH1 0x1F AND DUP3 ADD SWAP2 JUMPDEST POP POP POP POP POP DUP2 MSTORE PUSH1 0x20 ADD PUSH1 0x4 DUP3 ADD SLOAD DUP2 MSTORE POP POP SWAP1 POP PUSH1 0x0 PUSH1 0x40 MLOAD DUP1 PUSH1 0xA0 ADD PUSH1 0x40 MSTORE DUP1 PUSH1 0x1 DUP5 PUSH1 0x0 ADD MLOAD PUSH2 0x5CC SWAP2 SWAP1 PUSH2 0x11E3 JUMP JUMPDEST DUP2 MSTORE PUSH1 0x20 ADD DUP4 PUSH1 0x80 ADD MLOAD DUP2 MSTORE PUSH1 0x20 ADD TIMESTAMP DUP2 MSTORE PUSH1 0x20 ADD DUP5 DUP2 MSTORE PUSH1 0x20 ADD DUP5 TIMESTAMP DUP6 PUSH1 0x80 ADD MLOAD PUSH1 0x40 MLOAD PUSH1 0x20 ADD PUSH2 0x600 SWAP4 SWAP3 SWAP2 SWAP1 PUSH2 0x1238 JUMP JUMPDEST PUSH1 0x40 MLOAD PUSH1 0x20 DUP2 DUP4 SUB SUB DUP2 MSTORE SWAP1 PUSH1 0x40 MSTORE DUP1 MLOAD SWAP1 PUSH1 0x20 ADD KECCAK256 DUP2 MSTORE POP SWAP1 POP PUSH1 0x0 DUP5 PUSH1 0x40 MLOAD PUSH2 0x62B SWAP2 SWAP1 PUSH2 0xD3B JUMP JUMPDEST SWAP1 DUP2 MSTORE PUSH1 0x20 ADD PUSH1 0x40 MLOAD DUP1 SWAP2 SUB SWAP1 KECCAK256 PUSH1 0x1 ADD DUP2 SWAP1 DUP1 PUSH1 0x1 DUP2 SLOAD ADD DUP1 DUP3 SSTORE DUP1 SWAP2 POP POP PUSH1 0x1 SWAP1 SUB SWAP1 PUSH1 0x0 MSTORE PUSH1 0x20 PUSH1 0x0 KECCAK256 SWAP1 PUSH1 0x5 MUL ADD PUSH1 0x0 SWAP1 SWAP2 SWAP1 SWAP2 SWAP1 SWAP2 POP PUSH1 0x0 DUP3 ADD MLOAD DUP2 PUSH1 0x0 ADD SSTORE PUSH1 0x20 DUP3 ADD MLOAD DUP2 PUSH1 0x1 ADD SSTORE PUSH1 0x40 DUP3 ADD MLOAD DUP2 PUSH1 0x2 ADD SSTORE PUSH1 0x60 DUP3 ADD MLOAD DUP2 PUSH1 0x3 ADD SWAP1 DUP2 PUSH2 0x699 SWAP2 SWAP1 PUSH2 0x1013 JUMP JUMPDEST POP PUSH1 0x80 DUP3 ADD MLOAD DUP2 PUSH1 0x4 ADD SSTORE POP POP POP POP POP POP JUMP JUMPDEST PUSH1 0x1 DUP2 DUP2 SLOAD DUP2 LT PUSH2 0x6BC JUMPI PUSH1 0x0 DUP1 REVERT JUMPDEST SWAP1 PUSH1 0x0 MSTORE PUSH1 0x20 PUSH1 0x0 KECCAK256 ADD PUSH1 0x0 SWAP2 POP SWAP1 POP DUP1 SLOAD PUSH2 0x6D7 SWAP1 PUSH2 0xE36 JUMP JUMPDEST DUP1 PUSH1 0x1F ADD PUSH1 0x20 DUP1 SWAP2 DIV MUL PUSH1 0x20 ADD PUSH1 0x40 MLOAD SWAP1 DUP2 ADD PUSH1 0x40 MSTORE DUP1 SWAP3 SWAP2 SWAP1 DUP2 DUP2 MSTORE PUSH1 0x20 ADD DUP3 DUP1 SLOAD PUSH2 0x703 SWAP1 PUSH2 0xE36 JUMP JUMPDEST DUP1 ISZERO PUSH2 0x750 JUMPI DUP1 PUSH1 0x1F LT PUSH2 0x725 JUMPI PUSH2 0x100 DUP1 DUP4 SLOAD DIV MUL DUP4 MSTORE SWAP2 PUSH1 0x20 ADD SWAP2 PUSH2 0x750 JUMP JUMPDEST DUP3 ADD SWAP2 SWAP1 PUSH1 0x0 MSTORE PUSH1 0x20 PUSH1 0x0 KECCAK256 SWAP1 JUMPDEST DUP2 SLOAD DUP2 MSTORE SWAP1 PUSH1 0x1 ADD SWAP1 PUSH1 0x20 ADD DUP1 DUP4 GT PUSH2 0x733 JUMPI DUP3 SWAP1 SUB PUSH1 0x1F AND DUP3 ADD SWAP2 JUMPDEST POP POP POP POP POP DUP2 JUMP JUMPDEST PUSH1 0x0 DUP2 DUP1 MLOAD PUSH1 0x20 DUP2 ADD DUP3 ADD DUP1 MLOAD DUP5 DUP3 MSTORE PUSH1 0x20 DUP4 ADD PUSH1 0x20 DUP6 ADD KECCAK256 DUP2 DUP4 MSTORE DUP1 SWAP6 POP POP POP POP POP POP PUSH1 0x0 SWAP2 POP SWAP1 POP DUP1 PUSH1 0x0 ADD DUP1 SLOAD PUSH2 0x791 SWAP1 PUSH2 0xE36 JUMP JUMPDEST DUP1 PUSH1 0x1F ADD PUSH1 0x20 DUP1 SWAP2 DIV MUL PUSH1 0x20 ADD PUSH1 0x40 MLOAD SWAP1 DUP2 ADD PUSH1 0x40 MSTORE DUP1 SWAP3 SWAP2 SWAP1 DUP2 DUP2 MSTORE PUSH1 0x20 ADD DUP3 DUP1 SLOAD PUSH2 0x7BD SWAP1 PUSH2 0xE36 JUMP JUMPDEST DUP1 ISZERO PUSH2 0x80A JUMPI DUP1 PUSH1 0x1F LT PUSH2 0x7DF JUMPI PUSH2 0x100 DUP1 DUP4 SLOAD DIV MUL DUP4 MSTORE SWAP2 PUSH1 0x20 ADD SWAP2 PUSH2 0x80A JUMP JUMPDEST DUP3 ADD SWAP2 SWAP1 PUSH1 0x0 MSTORE PUSH1 0x20 PUSH1 0x0 KECCAK256 SWAP1 JUMPDEST DUP2 SLOAD DUP2 MSTORE SWAP1 PUSH1 0x1 ADD SWAP1 PUSH1 0x20 ADD DUP1 DUP4 GT PUSH2 0x7ED JUMPI DUP3 SWAP1 SUB PUSH1 0x1F AND DUP3 ADD SWAP2 JUMPDEST POP POP POP POP POP SWAP1 POP DUP2 JUMP JUMPDEST PUSH1 0x0 PUSH1 0x40 MLOAD SWAP1 POP SWAP1 JUMP JUMPDEST PUSH1 0x0 DUP1 REVERT JUMPDEST PUSH1 0x0 DUP1 REVERT JUMPDEST PUSH1 0x0 DUP1 REVERT JUMPDEST PUSH1 0x0 DUP1 REVERT JUMPDEST PUSH1 0x0 PUSH1 0x1F NOT PUSH1 0x1F DUP4 ADD AND SWAP1 POP SWAP2 SWAP1 POP JUMP JUMPDEST PUSH32 0x4E487B7100000000000000000000000000000000000000000000000000000000 PUSH1 0x0 MSTORE PUSH1 0x41 PUSH1 0x4 MSTORE PUSH1 0x24 PUSH1 0x0 REVERT JUMPDEST PUSH2 0x87B DUP3 PUSH2 0x832 JUMP JUMPDEST DUP2 ADD DUP2 DUP2 LT PUSH8 0xFFFFFFFFFFFFFFFF DUP3 GT OR ISZERO PUSH2 0x89A JUMPI PUSH2 0x899 PUSH2 0x843 JUMP JUMPDEST JUMPDEST DUP1 PUSH1 0x40 MSTORE POP POP POP JUMP JUMPDEST PUSH1 0x0 PUSH2 0x8AD PUSH2 0x814 JUMP JUMPDEST SWAP1 POP PUSH2 0x8B9 DUP3 DUP3 PUSH2 0x872 JUMP JUMPDEST SWAP2 SWAP1 POP JUMP JUMPDEST PUSH1 0x0 PUSH8 0xFFFFFFFFFFFFFFFF DUP3 GT ISZERO PUSH2 0x8D9 JUMPI PUSH2 0x8D8 PUSH2 0x843 JUMP JUMPDEST JUMPDEST PUSH2 0x8E2 DUP3 PUSH2 0x832 JUMP JUMPDEST SWAP1 POP PUSH1 0x20 DUP2 ADD SWAP1 POP SWAP2 SWAP1 POP JUMP JUMPDEST DUP3 DUP2 DUP4 CALLDATACOPY PUSH1 0x0 DUP4 DUP4 ADD MSTORE POP POP POP JUMP JUMPDEST PUSH1 0x0 PUSH2 0x911 PUSH2 0x90C DUP5 PUSH2 0x8BE JUMP JUMPDEST PUSH2 0x8A3 JUMP JUMPDEST SWAP1 POP DUP3 DUP2 MSTORE PUSH1 0x20 DUP2 ADD DUP5 DUP5 DUP5 ADD GT ISZERO PUSH2 0x92D JUMPI PUSH2 0x92C PUSH2 0x82D JUMP JUMPDEST JUMPDEST PUSH2 0x938 DUP5 DUP3 DUP6 PUSH2 0x8EF JUMP JUMPDEST POP SWAP4 SWAP3 POP POP POP JUMP JUMPDEST PUSH1 0x0 DUP3 PUSH1 0x1F DUP4 ADD SLT PUSH2 0x955 JUMPI PUSH2 0x954 PUSH2 0x828 JUMP JUMPDEST JUMPDEST DUP2 CALLDATALOAD PUSH2 0x965 DUP5 DUP3 PUSH1 0x20 DUP7 ADD PUSH2 0x8FE JUMP JUMPDEST SWAP2 POP POP SWAP3 SWAP2 POP POP JUMP JUMPDEST PUSH1 0x0 DUP1 PUSH1 0x40 DUP4 DUP6 SUB SLT ISZERO PUSH2 0x985 JUMPI PUSH2 0x984 PUSH2 0x81E JUMP JUMPDEST JUMPDEST PUSH1 0x0 DUP4 ADD CALLDATALOAD PUSH8 0xFFFFFFFFFFFFFFFF DUP2 GT ISZERO PUSH2 0x9A3 JUMPI PUSH2 0x9A2 PUSH2 0x823 JUMP JUMPDEST JUMPDEST PUSH2 0x9AF DUP6 DUP3 DUP7 ADD PUSH2 0x940 JUMP JUMPDEST SWAP3 POP POP PUSH1 0x20 DUP4 ADD CALLDATALOAD PUSH8 0xFFFFFFFFFFFFFFFF DUP2 GT ISZERO PUSH2 0x9D0 JUMPI PUSH2 0x9CF PUSH2 0x823 JUMP JUMPDEST JUMPDEST PUSH2 0x9DC DUP6 DUP3 DUP7 ADD PUSH2 0x940 JUMP JUMPDEST SWAP2 POP POP SWAP3 POP SWAP3 SWAP1 POP JUMP JUMPDEST PUSH1 0x0 PUSH1 0x20 DUP3 DUP5 SUB SLT ISZERO PUSH2 0x9FC JUMPI PUSH2 0x9FB PUSH2 0x81E JUMP JUMPDEST JUMPDEST PUSH1 0x0 DUP3 ADD CALLDATALOAD PUSH8 0xFFFFFFFFFFFFFFFF DUP2 GT ISZERO PUSH2 0xA1A JUMPI PUSH2 0xA19 PUSH2 0x823 JUMP JUMPDEST JUMPDEST PUSH2 0xA26 DUP5 DUP3 DUP6 ADD PUSH2 0x940 JUMP JUMPDEST SWAP2 POP POP SWAP3 SWAP2 POP POP JUMP JUMPDEST PUSH1 0x0 DUP2 MLOAD SWAP1 POP SWAP2 SWAP1 POP JUMP JUMPDEST PUSH1 0x0 DUP3 DUP3 MSTORE PUSH1 0x20 DUP3 ADD SWAP1 POP SWAP3 SWAP2 POP POP JUMP JUMPDEST PUSH1 0x0 DUP2 SWAP1 POP PUSH1 0x20 DUP3 ADD SWAP1 POP SWAP2 SWAP1 POP JUMP JUMPDEST PUSH1 0x0 DUP2 SWAP1 POP SWAP2 SWAP1 POP JUMP JUMPDEST PUSH2 0xA6E DUP2 PUSH2 0xA5B JUMP JUMPDEST DUP3 MSTORE POP POP JUMP JUMPDEST PUSH1 0x0 DUP2 SWAP1 POP SWAP2 SWAP1 POP JUMP JUMPDEST PUSH2 0xA87 DUP2 PUSH2 0xA74 JUMP JUMPDEST DUP3 MSTORE POP POP JUMP JUMPDEST PUSH1 0x0 DUP2 MLOAD SWAP1 POP SWAP2 SWAP1 POP JUMP JUMPDEST PUSH1 0x0 DUP3 DUP3 MSTORE PUSH1 0x20 DUP3 ADD SWAP1 POP SWAP3 SWAP2 POP POP JUMP JUMPDEST PUSH1 0x0 JUMPDEST DUP4 DUP2 LT ISZERO PUSH2 0xAC7 JUMPI DUP1 DUP3 ADD MLOAD DUP2 DUP5 ADD MSTORE PUSH1 0x20 DUP2 ADD SWAP1 POP PUSH2 0xAAC JUMP JUMPDEST PUSH1 0x0 DUP5 DUP5 ADD MSTORE POP POP POP POP JUMP JUMPDEST PUSH1 0x0 PUSH2 0xADE DUP3 PUSH2 0xA8D JUMP JUMPDEST PUSH2 0xAE8 DUP2 DUP6 PUSH2 0xA98 JUMP JUMPDEST SWAP4 POP PUSH2 0xAF8 DUP2 DUP6 PUSH1 0x20 DUP7 ADD PUSH2 0xAA9 JUMP JUMPDEST PUSH2 0xB01 DUP2 PUSH2 0x832 JUMP JUMPDEST DUP5 ADD SWAP2 POP POP SWAP3 SWAP2 POP POP JUMP JUMPDEST PUSH1 0x0 PUSH1 0xA0 DUP4 ADD PUSH1 0x0 DUP4 ADD MLOAD PUSH2 0xB24 PUSH1 0x0 DUP7 ADD DUP3 PUSH2 0xA65 JUMP JUMPDEST POP PUSH1 0x20 DUP4 ADD MLOAD PUSH2 0xB37 PUSH1 0x20 DUP7 ADD DUP3 PUSH2 0xA7E JUMP JUMPDEST POP PUSH1 0x40 DUP4 ADD MLOAD PUSH2 0xB4A PUSH1 0x40 DUP7 ADD DUP3 PUSH2 0xA65 JUMP JUMPDEST POP PUSH1 0x60 DUP4 ADD MLOAD DUP5 DUP3 SUB PUSH1 0x60 DUP7 ADD MSTORE PUSH2 0xB62 DUP3 DUP3 PUSH2 0xAD3 JUMP JUMPDEST SWAP2 POP POP PUSH1 0x80 DUP4 ADD MLOAD PUSH2 0xB77 PUSH1 0x80 DUP7 ADD DUP3 PUSH2 0xA7E JUMP JUMPDEST POP DUP1 SWAP2 POP POP SWAP3 SWAP2 POP POP JUMP JUMPDEST PUSH1 0x0 PUSH2 0xB8E DUP4 DUP4 PUSH2 0xB0C JUMP JUMPDEST SWAP1 POP SWAP3 SWAP2 POP POP JUMP JUMPDEST PUSH1 0x0 PUSH1 0x20 DUP3 ADD SWAP1 POP SWAP2 SWAP1 POP JUMP JUMPDEST PUSH1 0x0 PUSH2 0xBAE DUP3 PUSH2 0xA2F JUMP JUMPDEST PUSH2 0xBB8 DUP2 DUP6 PUSH2 0xA3A JUMP JUMPDEST SWAP4 POP DUP4 PUSH1 0x20 DUP3 MUL DUP6 ADD PUSH2 0xBCA DUP6 PUSH2 0xA4B JUMP JUMPDEST DUP1 PUSH1 0x0 JUMPDEST DUP6 DUP2 LT ISZERO PUSH2 0xC06 JUMPI DUP5 DUP5 SUB DUP10 MSTORE DUP2 MLOAD PUSH2 0xBE7 DUP6 DUP3 PUSH2 0xB82 JUMP JUMPDEST SWAP5 POP PUSH2 0xBF2 DUP4 PUSH2 0xB96 JUMP JUMPDEST SWAP3 POP PUSH1 0x20 DUP11 ADD SWAP10 POP POP PUSH1 0x1 DUP2 ADD SWAP1 POP PUSH2 0xBCE JUMP JUMPDEST POP DUP3 SWAP8 POP DUP8 SWAP6 POP POP POP POP POP POP SWAP3 SWAP2 POP POP JUMP JUMPDEST PUSH1 0x0 PUSH1 0x20 DUP3 ADD SWAP1 POP DUP2 DUP2 SUB PUSH1 0x0 DUP4 ADD MSTORE PUSH2 0xC32 DUP2 DUP5 PUSH2 0xBA3 JUMP JUMPDEST SWAP1 POP SWAP3 SWAP2 POP POP JUMP JUMPDEST PUSH2 0xC43 DUP2 PUSH2 0xA5B JUMP JUMPDEST DUP2 EQ PUSH2 0xC4E JUMPI PUSH1 0x0 DUP1 REVERT JUMPDEST POP JUMP JUMPDEST PUSH1 0x0 DUP2 CALLDATALOAD SWAP1 POP PUSH2 0xC60 DUP2 PUSH2 0xC3A JUMP JUMPDEST SWAP3 SWAP2 POP POP JUMP JUMPDEST PUSH1 0x0 PUSH1 0x20 DUP3 DUP5 SUB SLT ISZERO PUSH2 0xC7C JUMPI PUSH2 0xC7B PUSH2 0x81E JUMP JUMPDEST JUMPDEST PUSH1 0x0 PUSH2 0xC8A DUP5 DUP3 DUP6 ADD PUSH2 0xC51 JUMP JUMPDEST SWAP2 POP POP SWAP3 SWAP2 POP POP JUMP JUMPDEST PUSH1 0x0 DUP3 DUP3 MSTORE PUSH1 0x20 DUP3 ADD SWAP1 POP SWAP3 SWAP2 POP POP JUMP JUMPDEST PUSH1 0x0 PUSH2 0xCAF DUP3 PUSH2 0xA8D JUMP JUMPDEST PUSH2 0xCB9 DUP2 DUP6 PUSH2 0xC93 JUMP JUMPDEST SWAP4 POP PUSH2 0xCC9 DUP2 DUP6 PUSH1 0x20 DUP7 ADD PUSH2 0xAA9 JUMP JUMPDEST PUSH2 0xCD2 DUP2 PUSH2 0x832 JUMP JUMPDEST DUP5 ADD SWAP2 POP POP SWAP3 SWAP2 POP POP JUMP JUMPDEST PUSH1 0x0 PUSH1 0x20 DUP3 ADD SWAP1 POP DUP2 DUP2 SUB PUSH1 0x0 DUP4 ADD MSTORE PUSH2 0xCF7 DUP2 DUP5 PUSH2 0xCA4 JUMP JUMPDEST SWAP1 POP SWAP3 SWAP2 POP POP JUMP JUMPDEST PUSH1 0x0 DUP2 SWAP1 POP SWAP3 SWAP2 POP POP JUMP JUMPDEST PUSH1 0x0 PUSH2 0xD15 DUP3 PUSH2 0xA8D JUMP JUMPDEST PUSH2 0xD1F DUP2 DUP6 PUSH2 0xCFF JUMP JUMPDEST SWAP4 POP PUSH2 0xD2F DUP2 DUP6 PUSH1 0x20 DUP7 ADD PUSH2 0xAA9 JUMP JUMPDEST DUP1 DUP5 ADD SWAP2 POP POP SWAP3 SWAP2 POP POP JUMP JUMPDEST PUSH1 0x0 PUSH2 0xD47 DUP3 DUP5 PUSH2 0xD0A JUMP JUMPDEST SWAP2 POP DUP2 SWAP1 POP SWAP3 SWAP2 POP POP JUMP JUMPDEST PUSH32 0x47656E6573697320626C6F636B20616C72656164792065786973747300000000 PUSH1 0x0 DUP3 ADD MSTORE POP JUMP JUMPDEST PUSH1 0x0 PUSH2 0xD88 PUSH1 0x1C DUP4 PUSH2 0xC93 JUMP JUMPDEST SWAP2 POP PUSH2 0xD93 DUP3 PUSH2 0xD52 JUMP JUMPDEST PUSH1 0x20 DUP3 ADD SWAP1 POP SWAP2 SWAP1 POP JUMP JUMPDEST PUSH1 0x0 PUSH1 0x20 DUP3 ADD SWAP1 POP DUP2 DUP2 SUB PUSH1 0x0 DUP4 ADD MSTORE PUSH2 0xDB7 DUP2 PUSH2 0xD7B JUMP JUMPDEST SWAP1 POP SWAP2 SWAP1 POP JUMP JUMPDEST PUSH1 0x0 DUP2 SWAP1 POP SWAP2 SWAP1 POP JUMP JUMPDEST PUSH2 0xDD9 PUSH2 0xDD4 DUP3 PUSH2 0xA5B JUMP JUMPDEST PUSH2 0xDBE JUMP JUMPDEST DUP3 MSTORE POP POP JUMP JUMPDEST PUSH1 0x0 PUSH2 0xDEB DUP3 DUP6 PUSH2 0xD0A JUMP JUMPDEST SWAP2 POP PUSH2 0xDF7 DUP3 DUP5 PUSH2 0xDC8 JUMP JUMPDEST PUSH1 0x20 DUP3 ADD SWAP2 POP DUP2 SWAP1 POP SWAP4 SWAP3 POP POP POP JUMP JUMPDEST PUSH32 0x4E487B7100000000000000000000000000000000000000000000000000000000 PUSH1 0x0 MSTORE PUSH1 0x22 PUSH1 0x4 MSTORE PUSH1 0x24 PUSH1 0x0 REVERT JUMPDEST PUSH1 0x0 PUSH1 0x2 DUP3 DIV SWAP1 POP PUSH1 0x1 DUP3 AND DUP1 PUSH2 0xE4E JUMPI PUSH1 0x7F DUP3 AND SWAP2 POP JUMPDEST PUSH1 0x20 DUP3 LT DUP2 SUB PUSH2 0xE61 JUMPI PUSH2 0xE60 PUSH2 0xE07 JUMP JUMPDEST JUMPDEST POP SWAP2 SWAP1 POP JUMP JUMPDEST PUSH1 0x0 DUP2 SWAP1 POP DUP2 PUSH1 0x0 MSTORE PUSH1 0x20 PUSH1 0x0 KECCAK256 SWAP1 POP SWAP2 SWAP1 POP JUMP JUMPDEST PUSH1 0x0 PUSH1 0x20 PUSH1 0x1F DUP4 ADD DIV SWAP1 POP SWAP2 SWAP1 POP JUMP JUMPDEST PUSH1 0x0 DUP3 DUP3 SHL SWAP1 POP SWAP3 SWAP2 POP POP JUMP JUMPDEST PUSH1 0x0 PUSH1 0x8 DUP4 MUL PUSH2 0xEC9 PUSH32 0xFFFFFFFFFFFFFFFFFFFFFFFFFFFFFFFFFFFFFFFFFFFFFFFFFFFFFFFFFFFFFFFF DUP3 PUSH2 0xE8C JUMP JUMPDEST PUSH2 0xED3 DUP7 DUP4 PUSH2 0xE8C JUMP JUMPDEST SWAP6 POP DUP1 NOT DUP5 AND SWAP4 POP DUP1 DUP7 AND DUP5 OR SWAP3 POP POP POP SWAP4 SWAP3 POP POP POP JUMP JUMPDEST PUSH1 0x0 DUP2 SWAP1 POP SWAP2 SWAP1 POP JUMP JUMPDEST PUSH1 0x0 PUSH2 0xF10 PUSH2 0xF0B PUSH2 0xF06 DUP5 PUSH2 0xA5B JUMP JUMPDEST PUSH2 0xEEB JUMP JUMPDEST PUSH2 0xA5B JUMP JUMPDEST SWAP1 POP SWAP2 SWAP1 POP JUMP JUMPDEST PUSH1 0x0 DUP2 SWAP1 POP SWAP2 SWAP1 POP JUMP JUMPDEST PUSH2 0xF2A DUP4 PUSH2 0xEF5 JUMP JUMPDEST PUSH2 0xF3E PUSH2 0xF36 DUP3 PUSH2 0xF17 JUMP JUMPDEST DUP5 DUP5 SLOAD PUSH2 0xE99 JUMP JUMPDEST DUP3 SSTORE POP POP POP POP JUMP JUMPDEST PUSH1 0x0 SWAP1 JUMP JUMPDEST PUSH2 0xF53 PUSH2 0xF46 JUMP JUMPDEST PUSH2 0xF5E DUP2 DUP5 DUP5 PUSH2 0xF21 JUMP JUMPDEST POP POP POP JUMP JUMPDEST JUMPDEST DUP2 DUP2 LT ISZERO PUSH2 0xF82 JUMPI PUSH2 0xF77 PUSH1 0x0 DUP3 PUSH2 0xF4B JUMP JUMPDEST PUSH1 0x1 DUP2 ADD SWAP1 POP PUSH2 0xF64 JUMP JUMPDEST POP POP JUMP JUMPDEST PUSH1 0x1F DUP3 GT ISZERO PUSH2 0xFC7 JUMPI PUSH2 0xF98 DUP2 PUSH2 0xE67 JUMP JUMPDEST PUSH2 0xFA1 DUP5 PUSH2 0xE7C JUMP JUMPDEST DUP2 ADD PUSH1 0x20 DUP6 LT ISZERO PUSH2 0xFB0 JUMPI DUP2 SWAP1 POP JUMPDEST PUSH2 0xFC4 PUSH2 0xFBC DUP6 PUSH2 0xE7C JUMP JUMPDEST DUP4 ADD DUP3 PUSH2 0xF63 JUMP JUMPDEST POP POP JUMPDEST POP POP POP JUMP JUMPDEST PUSH1 0x0 DUP3 DUP3 SHR SWAP1 POP SWAP3 SWAP2 POP POP JUMP JUMPDEST PUSH1 0x0 PUSH2 0xFEA PUSH1 0x0 NOT DUP5 PUSH1 0x8 MUL PUSH2 0xFCC JUMP JUMPDEST NOT DUP1 DUP4 AND SWAP2 POP POP SWAP3 SWAP2 POP POP JUMP JUMPDEST PUSH1 0x0 PUSH2 0x1003 DUP4 DUP4 PUSH2 0xFD9 JUMP JUMPDEST SWAP2 POP DUP3 PUSH1 0x2 MUL DUP3 OR SWAP1 POP SWAP3 SWAP2 POP POP JUMP JUMPDEST PUSH2 0x101C DUP3 PUSH2 0xA8D JUMP JUMPDEST PUSH8 0xFFFFFFFFFFFFFFFF DUP2 GT ISZERO PUSH2 0x1035 JUMPI PUSH2 0x1034 PUSH2 0x843 JUMP JUMPDEST JUMPDEST PUSH2 0x103F DUP3 SLOAD PUSH2 0xE36 JUMP JUMPDEST PUSH2 0x104A DUP3 DUP3 DUP6 PUSH2 0xF86 JUMP JUMPDEST PUSH1 0x0 PUSH1 0x20 SWAP1 POP PUSH1 0x1F DUP4 GT PUSH1 0x1 DUP2 EQ PUSH2 0x107D JUMPI PUSH1 0x0 DUP5 ISZERO PUSH2 0x106B JUMPI DUP3 DUP8 ADD MLOAD SWAP1 POP JUMPDEST PUSH2 0x1075 DUP6 DUP3 PUSH2 0xFF7 JUMP JUMPDEST DUP7 SSTORE POP PUSH2 0x10DD JUMP JUMPDEST PUSH1 0x1F NOT DUP5 AND PUSH2 0x108B DUP7 PUSH2 0xE67 JUMP JUMPDEST PUSH1 0x0 JUMPDEST DUP3 DUP2 LT ISZERO PUSH2 0x10B3 JUMPI DUP5 DUP10 ADD MLOAD DUP3 SSTORE PUSH1 0x1 DUP3 ADD SWAP2 POP PUSH1 0x20 DUP6 ADD SWAP5 POP PUSH1 0x20 DUP2 ADD SWAP1 POP PUSH2 0x108E JUMP JUMPDEST DUP7 DUP4 LT ISZERO PUSH2 0x10D0 JUMPI DUP5 DUP10 ADD MLOAD PUSH2 0x10CC PUSH1 0x1F DUP10 AND DUP3 PUSH2 0xFD9 JUMP JUMPDEST DUP4 SSTORE POP JUMPDEST PUSH1 0x1 PUSH1 0x2 DUP9 MUL ADD DUP9 SSTORE POP POP POP JUMPDEST POP POP POP POP POP POP JUMP JUMPDEST PUSH32 0x47656E6573697320626C6F636B20646F6573206E6F7420657869737400000000 PUSH1 0x0 DUP3 ADD MSTORE POP JUMP JUMPDEST PUSH1 0x0 PUSH2 0x111B PUSH1 0x1C DUP4 PUSH2 0xC93 JUMP JUMPDEST SWAP2 POP PUSH2 0x1126 DUP3 PUSH2 0x10E5 JUMP JUMPDEST PUSH1 0x20 DUP3 ADD SWAP1 POP SWAP2 SWAP1 POP JUMP JUMPDEST PUSH1 0x0 PUSH1 0x20 DUP3 ADD SWAP1 POP DUP2 DUP2 SUB PUSH1 0x0 DUP4 ADD MSTORE PUSH2 0x114A DUP2 PUSH2 0x110E JUMP JUMPDEST SWAP1 POP SWAP2 SWAP1 POP JUMP JUMPDEST PUSH32 0x4E487B7100000000000000000000000000000000000000000000000000000000 PUSH1 0x0 MSTORE PUSH1 0x11 PUSH1 0x4 MSTORE PUSH1 0x24 PUSH1 0x0 REVERT JUMPDEST PUSH1 0x0 PUSH2 0x118B DUP3 PUSH2 0xA5B JUMP JUMPDEST SWAP2 POP PUSH2 0x1196 DUP4 PUSH2 0xA5B JUMP JUMPDEST SWAP3 POP DUP3 DUP3 SUB SWAP1 POP DUP2 DUP2 GT ISZERO PUSH2 0x11AE JUMPI PUSH2 0x11AD PUSH2 0x1151 JUMP JUMPDEST JUMPDEST SWAP3 SWAP2 POP POP JUMP JUMPDEST PUSH32 0x4E487B7100000000000000000000000000000000000000000000000000000000 PUSH1 0x0 MSTORE PUSH1 0x32 PUSH1 0x4 MSTORE PUSH1 0x24 PUSH1 0x0 REVERT JUMPDEST PUSH1 0x0 PUSH2 0x11EE DUP3 PUSH2 0xA5B JUMP JUMPDEST SWAP2 POP PUSH2 0x11F9 DUP4 PUSH2 0xA5B JUMP JUMPDEST SWAP3 POP DUP3 DUP3 ADD SWAP1 POP DUP1 DUP3 GT ISZERO PUSH2 0x1211 JUMPI PUSH2 0x1210 PUSH2 0x1151 JUMP JUMPDEST JUMPDEST SWAP3 SWAP2 POP POP JUMP JUMPDEST PUSH1 0x0 DUP2 SWAP1 POP SWAP2 SWAP1 POP JUMP JUMPDEST PUSH2 0x1232 PUSH2 0x122D DUP3 PUSH2 0xA74 JUMP JUMPDEST PUSH2 0x1217 JUMP JUMPDEST DUP3 MSTORE POP POP JUMP JUMPDEST PUSH1 0x0 PUSH2 0x1244 DUP3 DUP7 PUSH2 0xD0A JUMP JUMPDEST SWAP2 POP PUSH2 0x1250 DUP3 DUP6 PUSH2 0xDC8 JUMP JUMPDEST PUSH1 0x20 DUP3 ADD SWAP2 POP PUSH2 0x1260 DUP3 DUP5 PUSH2 0x1221 JUMP JUMPDEST PUSH1 0x20 DUP3 ADD SWAP2 POP DUP2 SWAP1 POP SWAP5 SWAP4 POP POP POP POP JUMP INVALID LOG2 PUSH5 0x6970667358 0x22 SLT KECCAK256 0xCB 0xBE PUSH19 0x161CE90851CFBAD511FF48377B53FB533860F9 0xB6 0xF7 PUSH9 0xEA713CF84EE8446473 PUSH16 0x6C634300081800330000000000000000 "},"methodIdentifiers":{"addBlock(string,string)":"5ef950b3","createGenesisBlock(string,string)":"3d2a7d94","departmentList(uint256)":"9ecf3a41","departments(string)":"fa3e4936","getDepartmentBlocks(string)":"449e491f"}}}}}