{
  "_format": "hh-sol-artifact-1",
  "contractName": "CollegeBlockchain",
  "sourceName": "contracts/CollegeBlockchain.sol",
  "abi": [
    {
      "inputs": [
        {
          "internalType": "string",
          "name": "deptName",
          "type": "string"
        },
        {
          "internalType": "string",
          "name": "studentName",
          "type": "string"
        },
        {
          "internalType": "string",
          "name": "usn",
          "type": "string"
        },
        {
          "internalType": "string",
          "name": "dob",
          "type": "string"
        },
        {
          "internalType": "string",
          "name": "semester",
          "type": "string"
        },
        {
          "internalType": "string",
          "name": "cgpa",
          "type": "string"
        },
        {
          "internalType": "string",
          "name": "studentAddress",
          "type": "string"
        }
      ],
      "name": "addBlock",
      "outputs": [],
      "stateMutability": "nonpayable",
      "type": "function"
    },
    {
      "inputs": [
        {
          "internalType": "string",
          "name": "deptName",
          "type": "string"
        },
        {
          "internalType": "string",
          "name": "studentName",
          "type": "string"
        },
        {
          "internalType": "string",
          "name": "usn",
          "type": "string"
        },
        {
          "internalType": "string",
          "name": "dob",
          "type": "string"
        },
        {
          "internalType": "string",
          "name": "semester",
          "type": "string"
        },
        {
          "internalType": "string",
          "name": "cgpa",
          "type": "string"
        },
        {
          "internalType": "string",
          "name": "studentAddress",
          "type": "string"
        }
      ],
      "name": "createGenesisBlock",
      "outputs": [],
      "stateMutability": "nonpayable",
      "type": "function"
    },
    {
      "inputs": [
        {
          "internalType": "uint256",
          "name": "",
          "type": "uint256"
        }
      ],
      "name": "departmentList",
      "outputs": [
        {
          "internalType": "string",
          "name": "",
          "type": "string"
        }
      ],
      "stateMutability": "view",
      "type": "function"
    },
    {
      "inputs": [
        {
          "internalType": "string",
          "name": "",
          "type": "string"
        }
      ],
      "name": "departments",
      "outputs": [
        {
          "internalType": "string",
          "name": "name",
          "type": "string"
        }
      ],
      "stateMutability": "view",
      "type": "function"
    },
    {
      "inputs": [
        {
          "internalType": "string",
          "name": "deptName",
          "type": "string"
        }
      ],
      "name": "getDepartmentBlocks",
      "outputs": [
        {
          "components": [
            {
              "internalType": "uint256",
              "name": "index",
              "type": "uint256"
            },
            {
              "internalType": "bytes32",
              "name": "previousHash",
              "type": "bytes32"
            },
            {
              "internalType": "uint256",
              "name": "timestamp",
              "type": "uint256"
            },
            {
              "internalType": "string",
              "name": "studentName",
              "type": "string"
            },
            {
              "internalType": "string",
              "name": "usn",
              "type": "string"
            },
            {
              "internalType": "string",
              "name": "dob",
              "type": "string"
            },
            {
              "internalType": "string",
              "name": "semester",
              "type": "string"
            },
            {
              "internalType": "string",
              "name": "cgpa",
              "type": "string"
            },
            {
              "internalType": "string",
              "name": "studentAddress",
              "type": "string"
            },
            {
              "internalType": "bytes32",
              "name": "hash",
              "type": "bytes32"
            }
          ],
          "internalType": "struct CollegeBlockchain.Block[]",
          "name": "",
          "type": "tuple[]"
        }
      ],
      "stateMutability": "view",
      "type": "function"
    }
  ],
  "bytecode": "0x608060405234801561001057600080fd5b50611b92806100206000396000f3fe608060405234801561001057600080fd5b50600436106100575760003560e01c8063449e491f1461005c5780636d4d70451461008c5780639ecf3a41146100a8578063a749e56c146100d8578063fa3e4936146100f4575b600080fd5b61007660048036038101906100719190611062565b610124565b604051610083919061131b565b60405180910390f35b6100a660048036038101906100a1919061133d565b610539565b005b6100c260048036038101906100bd91906114cf565b610788565b6040516100cf9190611546565b60405180910390f35b6100f260048036038101906100ed919061133d565b610834565b005b61010e60048036038101906101099190611062565b610e4c565b60405161011b9190611546565b60405180910390f35b606060008260405161013691906115a4565b9081526020016040518091039020600101805480602002602001604051908101604052809291908181526020016000905b8282101561052e57838290600052602060002090600a0201604051806101400160405290816000820154815260200160018201548152602001600282015481526020016003820180546101b9906115ea565b80601f01602080910402602001604051908101604052809291908181526020018280546101e5906115ea565b80156102325780601f1061020757610100808354040283529160200191610232565b820191906000526020600020905b81548152906001019060200180831161021557829003601f168201915b5050505050815260200160048201805461024b906115ea565b80601f0160208091040260200160405190810160405280929190818152602001828054610277906115ea565b80156102c45780601f10610299576101008083540402835291602001916102c4565b820191906000526020600020905b8154815290600101906020018083116102a757829003601f168201915b505050505081526020016005820180546102dd906115ea565b80601f0160208091040260200160405190810160405280929190818152602001828054610309906115ea565b80156103565780601f1061032b57610100808354040283529160200191610356565b820191906000526020600020905b81548152906001019060200180831161033957829003601f168201915b5050505050815260200160068201805461036f906115ea565b80601f016020809104026020016040519081016040528092919081815260200182805461039b906115ea565b80156103e85780601f106103bd576101008083540402835291602001916103e8565b820191906000526020600020905b8154815290600101906020018083116103cb57829003601f168201915b50505050508152602001600782018054610401906115ea565b80601f016020809104026020016040519081016040528092919081815260200182805461042d906115ea565b801561047a5780601f1061044f5761010080835404028352916020019161047a565b820191906000526020600020905b81548152906001019060200180831161045d57829003601f168201915b50505050508152602001600882018054610493906115ea565b80601f01602080910402602001604051908101604052809291908181526020018280546104bf906115ea565b801561050c5780601f106104e15761010080835404028352916020019161050c565b820191906000526020600020905b8154815290600101906020018083116104ef57829003601f168201915b5050505050815260200160098201548152505081526020019060010190610167565b505050509050919050565b6000808860405161054a91906115a4565b9081526020016040518091039020600101805490501461059f576040517f08c379a000000000000000000000000000000000000000000000000000000000815260040161059690611667565b60405180910390fd5b6000604051806101400160405280600081526020016000801b81526020014281526020018881526020018781526020018681526020018581526020018481526020018381526020018888888888884260405160200161060497969594939291906116a8565b6040516020818303038152906040528051906020012081525090508760008960405161063091906115a4565b9081526020016040518091039020600001908161064d91906118bd565b5060008860405161065e91906115a4565b90815260200160405180910390206001018190806001815401808255809150506001900390600052602060002090600a020160009091909190915060008201518160000155602082015181600101556040820151816002015560608201518160030190816106cc91906118bd565b5060808201518160040190816106e291906118bd565b5060a08201518160050190816106f891906118bd565b5060c082015181600601908161070e91906118bd565b5060e082015181600701908161072491906118bd565b5061010082015181600801908161073b91906118bd565b506101208201518160090155505060018890806001815401808255809150506001900390600052602060002001600090919091909150908161077d91906118bd565b505050505050505050565b6001818154811061079857600080fd5b9060005260206000200160009150905080546107b3906115ea565b80601f01602080910402602001604051908101604052809291908181526020018280546107df906115ea565b801561082c5780601f106108015761010080835404028352916020019161082c565b820191906000526020600020905b81548152906001019060200180831161080f57829003601f168201915b505050505081565b6000808860405161084591906115a4565b9081526020016040518091039020600101805490501161089a576040517f08c379a0000000000000000000000000000000000000000000000000000000008152600401610891906119db565b60405180910390fd5b600080886040516108ab91906115a4565b9081526020016040518091039020600101600160008a6040516108ce91906115a4565b9081526020016040518091039020600101805490506108ed9190611a2a565b815481106108fe576108fd611a5e565b5b90600052602060002090600a020160405180610140016040529081600082015481526020016001820154815260200160028201548152602001600382018054610946906115ea565b80601f0160208091040260200160405190810160405280929190818152602001828054610972906115ea565b80156109bf5780601f10610994576101008083540402835291602001916109bf565b820191906000526020600020905b8154815290600101906020018083116109a257829003601f168201915b505050505081526020016004820180546109d8906115ea565b80601f0160208091040260200160405190810160405280929190818152602001828054610a04906115ea565b8015610a515780601f10610a2657610100808354040283529160200191610a51565b820191906000526020600020905b815481529060010190602001808311610a3457829003601f168201915b50505050508152602001600582018054610a6a906115ea565b80601f0160208091040260200160405190810160405280929190818152602001828054610a96906115ea565b8015610ae35780601f10610ab857610100808354040283529160200191610ae3565b820191906000526020600020905b815481529060010190602001808311610ac657829003601f168201915b50505050508152602001600682018054610afc906115ea565b80601f0160208091040260200160405190810160405280929190818152602001828054610b28906115ea565b8015610b755780601f10610b4a57610100808354040283529160200191610b75565b820191906000526020600020905b815481529060010190602001808311610b5857829003601f168201915b50505050508152602001600782018054610b8e906115ea565b80601f0160208091040260200160405190810160405280929190818152602001828054610bba906115ea565b8015610c075780601f10610bdc57610100808354040283529160200191610c07565b820191906000526020600020905b815481529060010190602001808311610bea57829003601f168201915b50505050508152602001600882018054610c20906115ea565b80601f0160208091040260200160405190810160405280929190818152602001828054610c4c906115ea565b8015610c995780601f10610c6e57610100808354040283529160200191610c99565b820191906000526020600020905b815481529060010190602001808311610c7c57829003601f168201915b505050505081526020016009820154815250509050600060405180610140016040528060018460000151610ccd9190611a8d565b81526020018361012001518152602001428152602001898152602001888152602001878152602001868152602001858152602001848152602001898989898989428a6101200151604051602001610d2b989796959493929190611ae2565b604051602081830303815290604052805190602001208152509050600089604051610d5691906115a4565b90815260200160405180910390206001018190806001815401808255809150506001900390600052602060002090600a02016000909190919091506000820151816000015560208201518160010155604082015181600201556060820151816003019081610dc491906118bd565b506080820151816004019081610dda91906118bd565b5060a0820151816005019081610df091906118bd565b5060c0820151816006019081610e0691906118bd565b5060e0820151816007019081610e1c91906118bd565b50610100820151816008019081610e3391906118bd565b5061012082015181600901555050505050505050505050565b600081805160208101820180518482526020830160208501208183528095505050505050600091509050806000018054610e85906115ea565b80601f0160208091040260200160405190810160405280929190818152602001828054610eb1906115ea565b8015610efe5780601f10610ed357610100808354040283529160200191610efe565b820191906000526020600020905b815481529060010190602001808311610ee157829003601f168201915b5050505050905081565b6000604051905090565b600080fd5b600080fd5b600080fd5b600080fd5b6000601f19601f8301169050919050565b7f4e487b7100000000000000000000000000000000000000000000000000000000600052604160045260246000fd5b610f6f82610f26565b810181811067ffffffffffffffff82111715610f8e57610f8d610f37565b5b80604052505050565b6000610fa1610f08565b9050610fad8282610f66565b919050565b600067ffffffffffffffff821115610fcd57610fcc610f37565b5b610fd682610f26565b9050602081019050919050565b82818337600083830152505050565b600061100561100084610fb2565b610f97565b90508281526020810184848401111561102157611020610f21565b5b61102c848285610fe3565b509392505050565b600082601f83011261104957611048610f1c565b5b8135611059848260208601610ff2565b91505092915050565b60006020828403121561107857611077610f12565b5b600082013567ffffffffffffffff81111561109657611095610f17565b5b6110a284828501611034565b91505092915050565b600081519050919050565b600082825260208201905092915050565b6000819050602082019050919050565b6000819050919050565b6110ea816110d7565b82525050565b6000819050919050565b611103816110f0565b82525050565b600081519050919050565b600082825260208201905092915050565b60005b83811015611143578082015181840152602081019050611128565b60008484015250505050565b600061115a82611109565b6111648185611114565b9350611174818560208601611125565b61117d81610f26565b840191505092915050565b6000610140830160008301516111a160008601826110e1565b5060208301516111b460208601826110fa565b5060408301516111c760408601826110e1565b50606083015184820360608601526111df828261114f565b915050608083015184820360808601526111f9828261114f565b91505060a083015184820360a0860152611213828261114f565b91505060c083015184820360c086015261122d828261114f565b91505060e083015184820360e0860152611247828261114f565b915050610100830151848203610100860152611263828261114f565b91505061012083015161127a6101208601826110fa565b508091505092915050565b60006112918383611188565b905092915050565b6000602082019050919050565b60006112b1826110ab565b6112bb81856110b6565b9350836020820285016112cd856110c7565b8060005b8581101561130957848403895281516112ea8582611285565b94506112f583611299565b925060208a019950506001810190506112d1565b50829750879550505050505092915050565b6000602082019050818103600083015261133581846112a6565b905092915050565b600080600080600080600060e0888a03121561135c5761135b610f12565b5b600088013567ffffffffffffffff81111561137a57611379610f17565b5b6113868a828b01611034565b975050602088013567ffffffffffffffff8111156113a7576113a6610f17565b5b6113b38a828b01611034565b965050604088013567ffffffffffffffff8111156113d4576113d3610f17565b5b6113e08a828b01611034565b955050606088013567ffffffffffffffff81111561140157611400610f17565b5b61140d8a828b01611034565b945050608088013567ffffffffffffffff81111561142e5761142d610f17565b5b61143a8a828b01611034565b93505060a088013567ffffffffffffffff81111561145b5761145a610f17565b5b6114678a828b01611034565b92505060c088013567ffffffffffffffff81111561148857611487610f17565b5b6114948a828b01611034565b91505092959891949750929550565b6114ac816110d7565b81146114b757600080fd5b50565b6000813590506114c9816114a3565b92915050565b6000602082840312156114e5576114e4610f12565b5b60006114f3848285016114ba565b91505092915050565b600082825260208201905092915050565b600061151882611109565b61152281856114fc565b9350611532818560208601611125565b61153b81610f26565b840191505092915050565b60006020820190508181036000830152611560818461150d565b905092915050565b600081905092915050565b600061157e82611109565b6115888185611568565b9350611598818560208601611125565b80840191505092915050565b60006115b08284611573565b915081905092915050565b7f4e487b7100000000000000000000000000000000000000000000000000000000600052602260045260246000fd5b6000600282049050600182168061160257607f821691505b602082108103611615576116146115bb565b5b50919050565b7f47656e6573697320626c6f636b20616c72656164792065786973747300000000600082015250565b6000611651601c836114fc565b915061165c8261161b565b602082019050919050565b6000602082019050818103600083015261168081611644565b9050919050565b6000819050919050565b6116a261169d826110d7565b611687565b82525050565b60006116b4828a611573565b91506116c08289611573565b91506116cc8288611573565b91506116d88287611573565b91506116e48286611573565b91506116f08285611573565b91506116fc8284611691565b60208201915081905098975050505050505050565b60008190508160005260206000209050919050565b60006020601f8301049050919050565b600082821b905092915050565b6000600883026117737fffffffffffffffffffffffffffffffffffffffffffffffffffffffffffffffff82611736565b61177d8683611736565b95508019841693508086168417925050509392505050565b6000819050919050565b60006117ba6117b56117b0846110d7565b611795565b6110d7565b9050919050565b6000819050919050565b6117d48361179f565b6117e86117e0826117c1565b848454611743565b825550505050565b600090565b6117fd6117f0565b6118088184846117cb565b505050565b5b8181101561182c576118216000826117f5565b60018101905061180e565b5050565b601f8211156118715761184281611711565b61184b84611726565b8101602085101561185a578190505b61186e61186685611726565b83018261180d565b50505b505050565b600082821c905092915050565b600061189460001984600802611876565b1980831691505092915050565b60006118ad8383611883565b9150826002028217905092915050565b6118c682611109565b67ffffffffffffffff8111156118df576118de610f37565b5b6118e982546115ea565b6118f4828285611830565b600060209050601f8311600181146119275760008415611915578287015190505b61191f85826118a1565b865550611987565b601f19841661193586611711565b60005b8281101561195d57848901518255600182019150602085019450602081019050611938565b8683101561197a5784890151611976601f891682611883565b8355505b6001600288020188555050505b505050505050565b7f47656e6573697320626c6f636b20646f6573206e6f7420657869737400000000600082015250565b60006119c5601c836114fc565b91506119d08261198f565b602082019050919050565b600060208201905081810360008301526119f4816119b8565b9050919050565b7f4e487b7100000000000000000000000000000000000000000000000000000000600052601160045260246000fd5b6000611a35826110d7565b9150611a40836110d7565b9250828203905081811115611a5857611a576119fb565b5b92915050565b7f4e487b7100000000000000000000000000000000000000000000000000000000600052603260045260246000fd5b6000611a98826110d7565b9150611aa3836110d7565b9250828201905080821115611abb57611aba6119fb565b5b92915050565b6000819050919050565b611adc611ad7826110f0565b611ac1565b82525050565b6000611aee828b611573565b9150611afa828a611573565b9150611b068289611573565b9150611b128288611573565b9150611b1e8287611573565b9150611b2a8286611573565b9150611b368285611691565b602082019150611b468284611acb565b602082019150819050999850505050505050505056fea2646970667358221220945c995069c5c1736e3ee4b1286f1c822c704017e200def8b45aad93fdd5a87d64736f6c63430008180033",
  "linkReferences": {},
  "deployedLinkReferences": {}
}